:020000040000FA
:0400000080EF03F09A
:080008008FEF04F0F9EC04F0A5
:10001000006EF3CF01F0F4CF02F0E9CF03F0956A60
:10002000836AFF0E936E8A6A0F0EC16E966A8D6A9E
:10003000926A896AF28EF28CF296F19EF180D08EED
:10004000F28AF184D58CD59AD596D550F80B06094D
:10005000D56ED58EFF0E836E320E00017A6F1E0EA6
:1000600000017B6F140E00017C6F280E00017D6F74
:10007000280E00017E6F0A0E00017F6FF9EC04F07C
:10008000046EF3CF05F0F4CF06F0E9CF07F000508F
:10009000045E0150055A0250065A0350075A000EDA
:1000A000075C08E1000E065C05E1000E055C02E15C
:1000B000320E045C0AE3F9EC04F0006EF3CF01F0B9
:1000C000F4CF02F0E9CF03F010D03C0E00017A6FBC
:1000D0001E0E00017B6F0A0E00017C6F1E0E0001D8
:1000E0007E6F140E00017F6FC9D7F9EC04F0046E27
:1000F000F3CF05F0F4CF06F0E9CF07F00050045E2F
:100100000150055A0250065A0350075A000E075C68
:1001100008E1000E065C05E1000E055C02E1320E0E
:10012000045C0AE3F9EC04F0006EF3CF01F0F4CFC5
:1001300002F0E9CF03F010D03C0E00017A6F1E0EE2
:1001400000017B6F0C0E00017C6F160E00017E6FAC
:10015000140E00017F6FC9D7F9EC04F0046EF3CFE1
:1001600005F0F4CF06F0E9CF07F00050045E01502F
:10017000055A0250065A0350075A000E075C08E160
:10018000000E065C05E1000E055C02E1320E045C27
:100190000AE3F9EC04F0006EF3CF01F0F4CF02F0C3
:1001A000E9CF03F00FD000017A6B1E0E00017B6FC8
:1001B0000C0E00017C6F160E00017E6F140E000104
:1001C0007F6FCAD7F9EC04F0046EF3CF05F0F4CFDB
:1001D00006F0E9CF07F00050045E0150055A0250C6
:1001E000065A0350075A000E075C08E1000E065C31
:1001F00005E1000E055C02E1320E045C0AE3F9EC55
:1002000004F0006EF3CF01F0F4CF02F0E9CF03F079
:1002100010D0010E00017A6F1E0E00017B6F0A0ED6
:1002200000017C6F230E00017E6F140E00017F6FB2
:10023000C9D7F9EC04F0046EF3CF05F0F4CF06F063
:10024000E9CF07F00050045E0150055A0250065AEB
:100250000350075A000E075C08E1000E065C05E13A
:10026000000E055C02E1320E045C0AE3F9EC04F0D6
:10027000006EF3CF01F0F4CF02F0E9CF03F010D01D
:10028000010E00017A6F1E0E00017B6F0A0E000145
:100290007C6F230E00017E6F2D0E00017F6FC9D78A
:1002A000F9EC04F0046EF3CF05F0F4CF06F0E9CFDB
:1002B00007F00050045E0150055A0250065A0350E0
:1002C000075A000E075C08E1000E065C05E1000E0F
:1002D000055C02E1320E045C0AE3F9EC04F0006E06
:1002E000F3CF01F0F4CF02F0E9CF03F010D0010E0C
:1002F00000017A6F1E0E00017B6F0A0E00017C6FF9
:10030000190E00017E6F2D0E00017F6FC9D7F9EC29
:1003100004F0046EF3CF05F0F4CF06F0E9CF07F058
:100320000050045E0150055A0250065A0350075A05
:10033000000E075C08E1000E065C05E1000E055C9E
:1003400002E1320E045C0AE3F9EC04F0006EF3CF34
:1003500001F0F4CF02F0E9CF03F010D0320E00012B
:100360007A6F1E0E00017B6F0A0E00017C6F190E62
:1003700000017E6F2D0E00017F6FC9D7F9EC04F0EC
:10038000046EF3CF05F0F4CF06F0E9CF07F000508C
:10039000045E0150055A0250065A0350075A000ED7
:1003A000075C08E1000E065C05E1000E055C02E159
:1003B000320E045C0AE3F9EC04F0006EF3CF01F0B6
:1003C000F4CF02F0E9CF03F059D6320E00017A6F74
:1003D0001E0E00017B6F0A0E00017C6F230E0001D0
:1003E0007E6F2D0E00017F6FC9D71200D9CFE5FFB8
:1003F000E1CFD9FF00C0E5FF01C0E5FF02C0E5FF86
:1004000003C0E5FF04C0E5FF05C0E5FF06C0E5FF4A
:1004100007C0E5FF08C0E5FF020EDBCF00F0030ECA
:10042000DBCF01F00050026E0150036E270E035C1B
:1004300002E1100E025C38E2026A0150001034E062
:10044000740E0224036E046A000E04220050056E2E
:100450000150066E000EE56E0A0EE56E0650E56E62
:100460000550E56ECBEC02F0076EF3CF08F0040EFA
:10047000E12603C0E9FF04C0EAFF07C0EFFF000E5A
:10048000E56E0A0EE56E0650E56E0550E56ED5EC9C
:1004900003F0036EF3CF04F0040EE1260350006E68
:1004A0000450016E022AC9D7E4CF08F0E4CF07F068
:1004B000E4CF06F0E4CF05F0E4CF04F0E4CF03F09E
:1004C000E4CF02F0E4CF01F0E4CF00F0E4CFD9FFB5
:1004D0001200D9CFE5FFE1CFD9FF00C0E5FF020E42
:1004E000DBCF00F0100E005CD8B04FD0FA6AFB6A88
:1004F0000034FA36E834FA36FC0B0A0FE56E050EC6
:10050000FA22000EFB22E450F96EA5EF02F0A7EFED
:1005100002F0A9EF02F0ABEF02F0ADEF02F0AFEFA7
:1005200002F0B1EF02F0B3EF02F0B5EF02F0B7EF77
:1005300002F0B9EF02F0BBEF02F0BDEF02F0BFEF47
:1005400002F0C1EF02F0C3EF02F03F0E1FD0060E23
:100550001DD05B0E1BD04F0E19D0660E17D06D0E3E
:1005600015D07D0E13D0070E11D07F0E0FD06F0E59
:100570000DD0770E0BD07C0E09D0390E07D05E0E51
:1005800005D0790E03D0710E01D0E86AE4CF00F0F7
:10059000E4CFD9FF1200D9CFE5FFE1CFD9FF00C0EA
:1005A000E5FF01C0E5FF02C0E5FF03C0E5FF04C0B1
:1005B000E5FF05C0E5FF06C0E5FF020EDBCF00F05A
:1005C000030EDBCF01F0040EDBCF02F0050EDBCF14
:1005D00003F0046A056A0350800BE844066E065077
:1005E00011E10250022603360350015C02E1025081
:1005F000005C04E2D8900332023204D0052A05C020
:1006000004F0E9D70350015C02E10250005C04E30E
:100610000250005E0350015AD8900332023204C0E7
:1006200005F004060550EEE101C0F3FF0050E4CFF1
:1006300006F0E4CF05F0E4CF04F0E4CF03F0E4CF1C
:1006400002F0E4CF01F0E4CF00F0E4CFD9FF1200D4
:10065000D9CFE5FFE1CFD9FF00C0E5FF01C0E5FF3D
:100660008D6A896A740E00017825006E016A000E99
:10067000012200C0E9FF01C0EAFFEFCF00F0005007
:10068000E56E69EC02F08C6EE65278C000F0040E64
:10069000005C24E2FA6AFB6A0034FA36E834FA367F
:1006A000FC0BB20FE56E060EFA22000EFB22E450A0
:1006B000F96E61EF03F065EF03F068EF03F06BEFA5
:1006C00003F0896A040E8D6E09D0020E8D6E06D07D
:1006D000010E8D6E03D08D6A100E896E78C000F009
:1006E00000280001786F040E0001785D02E300012C
:1006F000786BE4CF01F0E4CF00F0E4CFD9FF120033
:1007000011EEFFF021EEFFF0F86AA68EA69C07EE30
:10071000FFF00068ED6A0050FDE1100EF66E0A0E63
:10072000F76E000EF86E0900F5CF05F00900F5CF61
:1007300006F034D00900F5CF00F00900F5CF01F044
:100740000900F5CF02F009000900F5CFE9FF090023
:10075000F5CFEAFF090009000900F5CF03F0090011
:10076000F5CF04F009000900F6CF07F0F7CF08F045
:10077000F8CF09F000C0F6FF01C0F7FF02C0F8FF94
:1007800003D00900F5CFEEFF0306FBE20406F9E211
:1007900007C0F6FF08C0F7FF09C0F8FF0506CAE268
:1007A0000606C8E206EC00F0FFD7D9CFE5FFE1CF9F
:1007B000D9FF00C0E5FF01C0E5FF02C0E5FF03C0AF
:1007C000E5FF04C0E5FF05C0E5FF06C0E5FF07C083
:1007D000E5FF020EDBCF00F0030EDBCF01F0040ECD
:1007E000DBCF02F0050EDBCF03F0046A056A100EC2
:1007F000066E0150800BE844076E0050002601365B
:100800000450042605360750D8A404800350055C24
:1008100002E10250045C05E30250045E0350055AF5
:10082000008006060650E5E101C0F3FF0050E4CF6A
:1008300007F0E4CF06F0E4CF05F0E4CF04F0E4CF16
:1008400003F0E4CF02F0E4CF01F0E4CF00F0E4CF16
:10085000D9FF1200D9CFE5FFE1CFD9FF00C0E5FFF6
:10086000960E006E00060050FDE1006A0050000187
:100870007A1901E18C90005000017B1901E18C9202
:10088000005000017C1901E18C94005000017D1999
:1008900001E18C96005000017E1901E18C98005016
:1008A00000017F1901E18C9A002AC80E005CDEE38A
:1008B000E4CF00F0E4CFD9FF1200D9CFE5FFE1CFBC
:1008C000D9FF00C0E5FF01C0E5FF02C0E5FF03C09E
:1008D000E5FF70C000F071C001F072C002F073C09B
:1008E00003F00050010F0001706F000E01200001A5
:1008F000716F000E02200001726F000E03200001D4
:10090000736F83682AEC04F0E4CF03F0E4CF02F0C5
:10091000E4CF01F0E4CF00F0E4CFD9FF1200D8CF4C
:10092000E5FFE0CFE5FFE56EF3CFE5FFF4CFE5FFB0
:10093000E9CFE5FFEACFE5FFFACFE5FFFBCFE5FF23
:10094000D9CFE5FFE1CFD9FFF2A404D05DEC04F0EC
:100950003C0ED66EF294E4CFD9FFE4CFFBFFE4CF98
:10096000FAFFE4CFEAFFE4CFE9FFE4CFF4FFE4CFFE
:10097000F3FFE450E4CFE0FFE4CFD8FF1000D9CF7D
:10098000E5FFE1CFD9FF956A836AFF0E936E8A6A0D
:100990000F0EC16E966A8D6A926A896AF28EF28C27
:1009A000F296F19EF180D08EF28AF184D58CD59AA0
:1009B000D596D550F80B0609D56ED58EE4CFD9FF64
:1009C0001200D9CFE5FFE1CFD9FFC250C30BC26EF1
:1009D000C150F00B0E09C16EC08EC050C70B280964
:1009E000C06EC050F80B0109C06EC280E4CFD9FFC1
:1009F0001200D9CFE5FFE1CFD9FF73C0E9FF72C084
:100A0000F4FF71C0F3FF00017051E4CFD9FF120071
:100A100001001E0A0000700000000A000000000033
:080A20000000000000000000CE
:020000040030CA
:010001000CF2
:010003001EDE
:02000500038175
:00000001FF
