:020000040000FA
:1000000054EF02F008EF04F03CEF03F0D9CFE5FF26
:10001000E1CFD9FF00C0E5FF01C0E5FF02C0E5FF69
:1000200003C0E5FF04C0E5FF05C0E5FF06C0E5FF2E
:1000300007C0E5FF08C0E5FF09C0E5FF0AC0E5FF0E
:100040000BC0E5FF0CC0E5FF0DC0E5FF0EC0E5FFEE
:100050000FC0E5FF10C0E5FF020EDBCF00F0030E7E
:10006000DBCF01F0040EDBCF02F00050010F036E76
:10007000000E0120046E000E0220056E0050020FDB
:10008000066E000E0120076E000E0220086E005062
:10009000030F096E000E01200A6E000E02200B6E87
:1000A0000050040F0C6E000E01200D6E000E022099
:1000B0000E6E0F6A00C0F6FF01C0F7FF02C0FAFF24
:1000C000DDEC03F0EAEC03F0106E105001E18390D8
:1000D00003C0F6FF04C0F7FF05C0FAFFDDEC03F034
:1000E000EAEC03F0106E105001E1839206C0F6FFB7
:1000F00007C0F7FF08C0FAFFDDEC03F0EAEC03F0FD
:10010000106E105001E1839409C0F6FF0AC0F7FF9A
:100110000BC0FAFFDDEC03F0EAEC03F0106E1050B8
:1001200001E183960CC0F6FF0DC0F7FF0EC0FAFF89
:10013000DDEC03F0EAEC03F0106E105001E183985F
:100140000F2AFE0E0F5CD8A0B5D7E4CF10F0E4CF95
:100150000FF0E4CF0EF0E4CF0DF0E4CF0CF0E4CFDD
:100160000BF0E4CF0AF0E4CF09F0E4CF08F0E4CFDD
:1001700007F0E4CF06F0E4CF05F0E4CF04F0E4CFDD
:1001800003F0E4CF02F0E4CF01F0E4CF00F0E4CFDD
:10019000D9FF1200D9CFE5FFE1CFD9FF00C0E5FFBD
:1001A00001C0E5FF02C0E5FF03C0E5FF04C0E5FFB5
:1001B00005C0E5FF06C0E5FF07C0E5FF08C0E5FF95
:1001C000020EDBCF00F0030EDBCF01F00050026E19
:1001D0000150036E270E035C02E1100E025C38E250
:1001E000026A0150001034E0640E0224036E046AB7
:1001F000000E04220050056E0150066E000EE56EE2
:100200000A0EE56E0650E56E0550E56E9FEC01F0B6
:10021000076EF3CF08F0040EE12603C0E9FF04C027
:10022000EAFF07C0EFFF000EE56E0A0EE56E06500E
:10023000E56E0550E56EA9EC02F0036EF3CF04F015
:10024000040EE1260350006E0450016E022AC9D745
:10025000E4CF08F0E4CF07F0E4CF06F0E4CF05F0F8
:10026000E4CF04F0E4CF03F0E4CF02F0E4CF01F0F8
:10027000E4CF00F0E4CFD9FF1200D9CFE5FFE1CF02
:10028000D9FF00C0E5FF020EDBCF00F0100E005CCE
:10029000D8B04FD0FA6AFB6A0034FA36E834FA363E
:1002A000FC0BB20FE56E020EFA22000EFB22E450A8
:1002B000F96E79EF01F07BEF01F07DEF01F07FEF58
:1002C00001F081EF01F083EF01F085EF01F087EF9E
:1002D00001F089EF01F08BEF01F08DEF01F08FEF6E
:1002E00001F091EF01F093EF01F095EF01F097EF3E
:1002F00001F03F0E1FD0060E1DD05B0E1BD04F0E1F
:1003000019D0660E17D06D0E15D07D0E13D0070EC6
:1003100011D07F0E0FD06F0E0DD0770E0BD07C0E4C
:1003200009D0390E07D05E0E05D0790E03D0710EBC
:1003300001D0E86AE4CF00F0E4CFD9FF1200D9CFB2
:10034000E5FFE1CFD9FF00C0E5FF01C0E5FF02C036
:10035000E5FF03C0E5FF04C0E5FF05C0E5FF06C0FB
:10036000E5FF020EDBCF00F0030EDBCF01F0040E41
:10037000DBCF02F0050EDBCF03F0046A056A035001
:10038000800BE844066E065011E102500226033647
:100390000350015C02E10250005C04E2D890033299
:1003A000023204D0052A05C004F0E9D70350015CED
:1003B00002E10250005C04E30250005E0350015A67
:1003C000D8900332023204C005F004060550EEE175
:1003D00001C0F3FF0050E4CF06F0E4CF05F0E4CF16
:1003E00004F0E4CF03F0E4CF02F0E4CF01F0E4CF77
:1003F00000F0E4CFD9FF1200D9CFE5FFE1CFD9FF5C
:1004000000C0E5FF01C0E5FF8D6A896A640E000146
:100410006825006E016A000E012200C0E9FF01C0DC
:10042000EAFFEFCF00F00050E56E3DEC01F08C6E7E
:10043000E65268C000F0040E005C24E2FA6AFB6A2F
:100440000034FA36E834FA36FC0B5A0FE56E040E27
:10045000FA22000EFB22E450F96E35EF02F039EF7C
:1004600002F03CEF02F03FEF02F0896A040E8D6E5D
:1004700009D0020E8D6E06D0010E8D6E03D08D6AEE
:10048000100E896E68C000F000280001686F040E2D
:100490000001685D02E30001686BE4CF01F0E4CF86
:1004A00000F0E4CFD9FF120011EEFFF021EEFFF0D3
:1004B000F86AA68EA69C07EEFFF00068ED6A005071
:1004C000FDE1F80EF66E070EF76E000EF86E0900ED
:1004D000F5CF05F00900F5CF06F034D00900F5CFCF
:1004E00000F00900F5CF01F00900F5CF02F0090096
:1004F0000900F5CFE9FF0900F5CFEAFF090009007F
:100500000900F5CF03F00900F5CF04F00900090058
:10051000F6CF07F0F7CF08F0F8CF09F000C0F6FFEC
:1005200001C0F7FF02C0F8FF03D00900F5CFEEFFCE
:100530000306FBE20406F9E207C0F6FF08C0F7FF76
:1005400009C0F8FF0506CAE20606C8E2FEEC02F0A2
:10055000FFD7D9CFE5FFE1CFD9FF00C0E5FF01C04C
:10056000E5FF02C0E5FF03C0E5FF04C0E5FF05C0ED
:10057000E5FF06C0E5FF07C0E5FF020EDBCF00F098
:10058000030EDBCF01F0040EDBCF02F0050EDBCF54
:1005900003F0046A056A100E066E0150800BE844F1
:1005A000076E005000260136045004260536075019
:1005B000D8A404800350055C02E10250045C05E30A
:1005C0000250045E0350055A008006060650E5E11D
:1005D00001C0F3FF0050E4CF07F0E4CF06F0E4CF12
:1005E00005F0E4CF04F0E4CF03F0E4CF02F0E4CF71
:1005F00001F0E4CF00F0E4CFD9FF120000016A6BF4
:1006000000016B6B00016C6B00016D6B00016E6B88
:1006100000016F6BCEEC03F0956A836AFF0E936E58
:100620008A6A0F0EC16E966A8D6A926A896AF28E24
:10063000F28CF296F19EF180D08EF28AF184D58C04
:10064000D59AD596D550F80B0609D56ED58EFF0EE6
:10065000836E00016A6B1E0E00016B6F320E00018B
:100660006C6F320E00016D6F320E00016E6F320E34
:1006700000016F6FFFD71200D8CFE5FFE0CFE5FF95
:10068000E56EF3CFE5FFF4CFE5FFE9CFE5FFEACF75
:10069000E5FFFACFE5FFFBCFE5FFD9CFE5FFE1CFDF
:1006A000D9FFF2A404D0BBEC03F03C0ED66EF2945A
:1006B000E4CFD9FFE4CFFBFFE4CFFAFFE4CFEAFFBA
:1006C000E4CFE9FFE4CFF4FFE4CFF3FFE450E4CF5D
:1006D000E0FFE4CFD8FF1000D9CFE5FFE1CFD9FF8D
:1006E000956A836AFF0E936E8A6A0F0EC16E966AD0
:1006F0008D6A926A896AF28EF28CF296F19EF1808E
:10070000D08EF28AF184D58CD59AD596D550F80B37
:100710000609D56ED58EE4CFD9FF1200D9CFE5FFFB
:10072000E1CFD9FFC250C30BC26EC150F00B0E090E
:10073000C16EC08EC050C70B2809C06EC050F80BE8
:100740000109C06EC280E4CFD9FF1200F2CFF6FFDC
:10075000F29EA680A850A92AA680A8CFF3FFA92AB6
:10076000A680A8CFF4FFA92AA680A8CFF5FFA92AC2
:10077000F6BEF28E1200D9CFE5FFE1CFD9FF00C05F
:10078000E5FF8350D880E866D890006A00360050B4
:10079000836EE4CF00F0E4CFD9FF1200D9CFE5FF9C
:1007A000E1CFD9FF63C0E9FF62C0F4FF61C0F3FF8E
:1007B00000016051E4CFD9FF1200FAAE05D0F7CFA7
:1007C000EAFFF6CFE9FF1200FABC02EF00F0FACF21
:1007D000F8FF1200FAAE02D0EE501200FABC0FEF92
:1007E00004F00900F5501200F2CFF6FFF29EA68049
:1007F000A850F6BEF28E120001000608000060004C
:1008000000000A00000000000000000000000000DE
:10081000F6CFA9FFA69EA69C1200A6EF03F0F4EF68
:0208200003F0E3
:020000040030CA
:010001000CF2
:010003001EDE
:02000500038175
:00000001FF
