:020000040000FA
:0400000090EF01F08C
:080008006CEF02F0D9CFE5FF17
:10001000E1CFD9FF00C0E5FF01C0E5FF02C0E5FF69
:1000200003C0E5FF04C0E5FF05C0E5FF06C0E5FF2E
:1000300007C0E5FF08C0E5FF020EDBCF00F0030EAE
:10004000DBCF01F00050026E0150036E270E035CFF
:1000500002E1100E025C38E2026A0150001034E046
:10006000640E0224036E046A000E04220050056E22
:100070000150066E000EE56E0A0EE56E0650E56E46
:100080000550E56EDBEC00F0076EF3CF08F0040ED0
:10009000E12603C0E9FF04C0EAFF07C0EFFF000E3E
:1000A000E56E0A0EE56E0650E56E0550E56EE5EC70
:1000B00001F0036EF3CF04F0040EE1260350006E4E
:1000C0000450016E022AC9D7E4CF08F0E4CF07F04C
:1000D000E4CF06F0E4CF05F0E4CF04F0E4CF03F082
:1000E000E4CF02F0E4CF01F0E4CF00F0E4CFD9FF99
:1000F0001200D9CFE5FFE1CFD9FF00C0E5FF020E26
:10010000DBCF00F0100E005CD8B04FD0FA6AFB6A6B
:100110000034FA36E834FA36FC0B2A0FE56E010E8D
:10012000FA22000EFB22E450F96EB5EF00F0B7EFB3
:1001300000F0B9EF00F0BBEF00F0BDEF00F0BFEF53
:1001400000F0C1EF00F0C3EF00F0C5EF00F0C7EF23
:1001500000F0C9EF00F0CBEF00F0CDEF00F0CFEFF3
:1001600000F0D1EF00F0D3EF00F03F0E1FD0060EED
:100170001DD05B0E1BD04F0E19D0660E17D06D0E22
:1001800015D07D0E13D0070E11D07F0E0FD06F0E3D
:100190000DD0770E0BD07C0E09D0390E07D05E0E35
:1001A00005D0790E03D0710E01D0E86AE4CF00F0DB
:1001B000E4CFD9FF1200D9CFE5FFE1CFD9FF00C0CE
:1001C000E5FF01C0E5FF02C0E5FF03C0E5FF04C095
:1001D000E5FF05C0E5FF06C0E5FF020EDBCF00F03E
:1001E000030EDBCF01F0040EDBCF02F0050EDBCFF8
:1001F00003F0046A056A0350800BE844066E06505B
:1002000011E10250022603360350015C02E1025064
:10021000005C04E2D8900332023204D0052A05C003
:1002200004F0E9D70350015C02E10250005C04E3F2
:100230000250005E0350015AD8900332023204C0CB
:1002400005F004060550EEE101C0F3FF0050E4CFD5
:1002500006F0E4CF05F0E4CF04F0E4CF03F0E4CF00
:1002600002F0E4CF01F0E4CF00F0E4CFD9FF1200B8
:10027000D9CFE5FFE1CFD9FF00C0E5FF01C0E5FF21
:100280008D6A896A640E00016825006E016A000E9D
:10029000012200C0E9FF01C0EAFFEFCF00F00050EB
:1002A000E56E79EC00F08C6EE65268C000F0040E4A
:1002B000005C24E2FA6AFB6A0034FA36E834FA3663
:1002C000FC0BD20FE56E020EFA22000EFB22E45068
:1002D000F96E71EF01F075EF01F078EF01F07BEF4F
:1002E00001F0896A040E8D6E09D0020E8D6E06D063
:1002F000010E8D6E03D08D6A100E896E68C000F0FD
:1003000000280001686F040E0001685D02E300012F
:10031000686BE4CF01F0E4CF00F0E4CFD9FF120026
:1003200011EEFFF021EEFFF0F86AA68EA69C07EE14
:10033000FFF00068ED6A0050FDE13A0EF66E060E21
:10034000F76E000EF86E0900F5CF05F00900F5CF45
:1003500006F034D00900F5CF00F00900F5CF01F028
:100360000900F5CF02F009000900F5CFE9FF090007
:10037000F5CFEAFF090009000900F5CF03F00900F5
:10038000F5CF04F009000900F6CF07F0F7CF08F029
:10039000F8CF09F000C0F6FF01C0F7FF02C0F8FF78
:1003A00003D00900F5CFEEFF0306FBE20406F9E2F5
:1003B00007C0F6FF08C0F7FF09C0F8FF0506CAE24C
:1003C0000606C8E23AEC02F0FFD7D9CFE5FFE1CF4D
:1003D000D9FF00C0E5FF01C0E5FF02C0E5FF03C093
:1003E000E5FF04C0E5FF05C0E5FF06C0E5FF07C067
:1003F000E5FF020EDBCF00F0030EDBCF01F0040EB1
:10040000DBCF02F0050EDBCF03F0046A056A100EA5
:10041000066E0150800BE844076E0050002601363E
:100420000450042605360750D8A404800350055C08
:1004300002E10250045C05E30250045E0350055AD9
:10044000008006060650E5E101C0F3FF0050E4CF4E
:1004500007F0E4CF06F0E4CF05F0E4CF04F0E4CFFA
:1004600003F0E4CF02F0E4CF01F0E4CF00F0E4CFFA
:10047000D9FF120004EC03F0956A836AFF0E936EB5
:100480008A6A0F0EC16E966A8D6A926A896AF28EC6
:10049000F28CF296F19EF180D08EF28AF184D58CA6
:1004A000D59AD596D550F80B0609D56ED58EFF0E88
:1004B000836E00016A6B1E0E00016B6F3C0E000123
:1004C0006C6F500E00016D6F320E00016E6F320EB8
:1004D00000016F6FFFD71200D8CFE5FFE0CFE5FF37
:1004E000E56EF3CFE5FFF4CFE5FFE9CFE5FFEACF17
:1004F000E5FFFACFE5FFFBCFE5FFD9CFE5FFE1CF81
:10050000D9FFF2A404D013EC03F03C0ED66EF294A3
:10051000E4CFD9FFE4CFFBFFE4CFFAFFE4CFEAFF5B
:10052000E4CFE9FFE4CFF4FFE4CFF3FFE450E4CFFE
:10053000E0FFE4CFD8FF1000D9CFE5FFE1CFD9FF2E
:1005400000C0E5FF960E006E00060050FDE1006A57
:10055000005000016A1901E18C90005000016B19F4
:1005600001E18C92005000016C1901E18C94005063
:1005700000016D1901E18C96005000016E1901E136
:100580008C98002AC80E005CE3E3E4CF00F0E4CFCF
:10059000D9FF1200D9CFE5FFE1CFD9FF956A836A71
:1005A000FF0E936E8A6A0F0EC16E966A8D6A926A0A
:1005B000896AF28EF28CF296F19EF180D08EF28AE8
:1005C000F184D58CD59AD596D550F80B0609D56E01
:1005D000D58EE4CFD9FF1200D9CFE5FFE1CFD9FF07
:1005E000C250C30BC26EC150F00B0E09C16EC08E5B
:1005F000C050C70B2809C06EC050F80B0109C06E6F
:10060000C280E4CFD9FF1200D9CFE5FFE1CFD9FFF7
:1006100063C0E9FF62C0F4FF61C0F3FF00016051F5
:10062000E4CFD9FF1200D9CFE5FFE1CFD9FF83682E
:100630009CEC02F0E4CFD9FF120001004806000054
:10064000600000000A000000000000000000000040
:020650000000A8
:020000040030CA
:010001000CF2
:010003001EDE
:02000500038175
:00000001FF
