:020000040000FA
:040000006FEF07F0A7
:080008007CEF08F0D9CFE5FF01
:10001000E1CFD9FF00C0E5FF01C0E5FF02C0E5FF69
:1000200003C0E5FF04C0E5FF05C0E5FF06C0E5FF2E
:1000300007C0E5FF08C0E5FF09C0E5FF0AC0E5FF0E
:100040000BC0E5FF0CC0E5FF0DC0E5FF020EDBCFE6
:1000500000F0030EDBCF01F0040EDBCF02F0050E43
:10006000DBCF03F0060EDBCF04F0070EDBCF05F08D
:10007000080EDBCF06F0090EDBCF07F0D88003AE09
:10008000D890086A083608500FE0031C0C6E021C5A
:100090000B6E011C0A6E001C096E092A0DE10A2A6A
:1000A0000BE10B4A0C2A08D000C009F001C00AF08D
:1000B00002C00BF003C00CF0D88007AED890006AE5
:1000C000003600500FE0071C0D6E061C036E051C69
:1000D000026E041C016E012A0DE1022A0BE1034AA3
:1000E0000D2A08D004C001F005C002F006C003F0DC
:1000F00007C00DF00D50E56E0350E56E0250E56E41
:100100000150E56E0C50E56E0B50E56E0A50E56E41
:100110000950E56E10EC04F0016EF3CF02F0F4CF5D
:1001200003F0E9CF04F0080EE1260050081A085049
:1001300016E0041C076E031C066E021C056E011CF3
:10014000006E002A04E1052A02E1064A072A07C0D8
:10015000E9FF06C0F4FF05C0F3FF005007D004C05C
:10016000E9FF03C0F4FF02C0F3FF0150E4CF0DF03C
:10017000E4CF0CF0E4CF0BF0E4CF0AF0E4CF09F0C9
:10018000E4CF08F0E4CF07F0E4CF06F0E4CF05F0C9
:10019000E4CF04F0E4CF03F0E4CF02F0E4CF01F0C9
:1001A000E4CF00F0E4CFD9FF1200D9CFE5FFE1CFD3
:1001B000D9FF00C0E5FF01C0E5FF02C0E5FF03C0B5
:1001C000E5FF04C0E5FF05C0E5FF06C0E5FF07C089
:1001D000E5FF08C0E5FF09C0E5FF020EDBCF00F038
:1001E000030EDBCF01F0040EDBCF02F0050EDBCFF8
:1001F00003F000500001746F0150756F0250766F6C
:100200000350776F76117511741106E07751800BEA
:10021000E844006E005005E0E96AF46AF36AE86AAF
:1002200060D0000174517651026E7751036E023432
:100230000334006E016A6A0E0026D8A001067451CC
:10024000026E7551036E7651046E056A048E01507C
:10025000800F800F02E1090E005C05E3E968F46895
:10026000F368E8683ED0D88001AED89018E300501B
:10027000066E066C0650E96E02C006F003C007F079
:1002800004C008F005C009F0E95024E0E86CD890FB
:100290000932083207320632010FFAE31BD002C0DE
:1002A00006F003C007F004C008F005C009F00050D4
:1002B00011E009E6E86CD8900636073608360936AC
:1002C000010FFAE307D0D89009320832073206321C
:1002D000010FFAE309C0E9FF08C0F4FF07C0F3FF0C
:1002E0000650E4CF09F0E4CF08F0E4CF07F0E4CF04
:1002F00006F0E4CF05F0E4CF04F0E4CF03F0E4CF60
:1003000002F0E4CF01F0E4CF00F0E4CFD9FF120017
:10031000D9CFE5FFE1CFD9FF00C0E5FF01C0E5FF80
:1003200002C0E5FF03C0E5FF04C0E5FF05C0E5FF2F
:1003300006C0E5FF07C0E5FF020EDBCF00F0030EAD
:10034000DBCF01F0040EDBCF02F0050EDBCF03F0B4
:10035000060EDBCF04F0070EDBCF05F0080EDBCF77
:1003600006F0090EDBCF07F000500001786F015056
:10037000796F02507A6F03507B6F045000017C6FDD
:1003800005507D6F06507E6F07507F6F7C510001D6
:100390007811006E00017D5100017911016E00019C
:1003A0007E5100017A11026E00017F5100017B1124
:1003B000036E005006E1015004E1025002E10350D7
:1003C0007F0B02E1E86A3ED0D88000017BAFD89075
:1003D0001FE3D88000017FAFD8901AE37F51800FD0
:1003E000F36E00017B51800FF35C0DE17A51000147
:1003F0007E5D09E10001795100017D5D04E10001AC
:10040000785100017C5D02E2010E1CD0E86A1AD02E
:1004100000017B51800FF36E00017F51800FF35C70
:100420000DE17E5100017A5D09E100017D5100017D
:10043000795D04E100017C510001785D02E2010E6A
:1004400001D0E86AE4CF07F0E4CF06F0E4CF05F08E
:10045000E4CF04F0E4CF03F0E4CF02F0E4CF01F006
:10046000E4CF00F0E4CFD9FF1200D9CFE5FFE1CF10
:10047000D9FF00C0E5FF01C0E5FF02C0E5FF03C0F2
:10048000E5FF04C0E5FF05C0E5FF06C0E5FF07C0C6
:10049000E5FF08C0E5FF09C0E5FF0AC0E5FF020E61
:1004A000DBCF00F0030EDBCF01F0040EDBCF02F058
:1004B000050EDBCF03F0035002100110001005E120
:1004C000E96AF46AF36AE86A5CD00050FF0A09E15D
:1004D0000150FF0A06E10250FF0A03E10350FF0A40
:1004E00001E007D04F0EE96E800EF46EF36AE86A01
:1004F00048D0960E046E000E035C08E1800E025C8C
:1005000005E1000E015C02E1000E005C07E2005014
:1005100000260136023603360406EDD7035010E0FC
:100520000050010B06E0020E0026000E01220222FE
:100530000322D8900332023201320032042AEED76D
:10054000029E056A066A076A053004300A6E096A67
:100550000932086A085000120112095002120A50AA
:10056000031200500001706F0150716F0250726FE2
:100570000350736F73C0E9FF72C0F4FF71C0F3FFE3
:100580007051E4CF0AF0E4CF09F0E4CF08F0E4CFF3
:1005900007F0E4CF06F0E4CF05F0E4CF04F0E4CFB9
:1005A00003F0E4CF02F0E4CF01F0E4CF00F0E4CFB9
:1005B000D9FF1200D9CFE5FFE1CFD9FF00C0E5FF99
:1005C00001C0E5FF02C0E5FF03C0E5FF04C0E5FF91
:1005D00005C0E5FF06C0E5FF07C0E5FF08C0E5FF71
:1005E000020EDBCF00F0030EDBCF01F0040EDBCFF9
:1005F00002F0050EDBCF03F0800E046E000E056ED8
:1006000004C0E9FF05C0EAFF00C0EEFF01C0EFFF34
:10061000820E006E000E016E00C0E9FF01C0EAFF0D
:1006200002C0EEFF03C0EFFF840E006E000E016EED
:10063000800E026E000E036E02C0E9FF03C0EAFFE7
:10064000EFCF04F0820E056E000E066E05C0E9FFC6
:1006500006C0EAFFEFCF07F004500702F4CF08F01E
:10066000F3CF04F000C0E9FF01C0EAFF04C0EEFFD1
:1006700008C0EFFF02C0E9FF03C0EAFFEFCF02F0BE
:10068000025000018303F3CF02F005C0E9FF06C06A
:10069000EAFFEFCF05F0055000018103F3CF05F02D
:1006A000055002260001855102260250856F00C0C8
:1006B000E9FF01C0EAFFEECF00F0EFCF01F001C08B
:1006C000F3FF0050E4CF08F0E4CF07F0E4CF06F0EA
:1006D000E4CF05F0E4CF04F0E4CF03F0E4CF02F080
:1006E000E4CF01F0E4CF00F0E4CFD9FF1200D9CF7E
:1006F000E5FFE1CFD9FF00C0E5FF01C0E5FF02C083
:10070000E5FF03C0E5FF04C0E5FF05C0E5FF06C047
:10071000E5FF07C0E5FF020EDBCF00F0030EDBCFE5
:1007200001F0040EDBCF02F0050EDBCF03F0035027
:100730007F0B02100110001005E1E96AF46AF36A08
:10074000E86A5BD0E56AE56AE56AE56A0350E56E4A
:100750000250E56E0150E56E0050E56E88EC01F048
:10076000046E080EE12604502EE000C004F001C023
:1007700005F002C006F003C007F0077E0750E56EE3
:100780000650E56E0550E56E0450E56ED5EC00F0C0
:10079000046EF3CF05F0F4CF06F0E9CF07F0040EB6
:1007A000E126071E061E051E046C05E1052A03E16D
:1007B000062AD8B4072A07C0E9FF06C0F4FF05C01F
:1007C000F3FF04501AD00350E56E0250E56E01505D
:1007D000E56E0050E56ED5EC00F0006EF3CF01F051
:1007E000F4CF02F0E9CF03F0040EE12603C0E9FFE5
:1007F00002C0F4FF01C0F3FF0050E4CF07F0E4CFE4
:1008000006F0E4CF05F0E4CF04F0E4CF03F0E4CF4A
:1008100002F0E4CF01F0E4CF00F0E4CFD9FF120002
:10082000D9CFE5FFE1CFD9FF00C0E5FF01C0E5FF6B
:1008300002C0E5FF03C0E5FF04C0E5FF05C0E5FF1A
:1008400006C0E5FF07C0E5FF08C0E5FF09C0E5FFFA
:100850000AC0E5FF0BC0E5FF0CC0E5FF0DC0E5FFDA
:10086000020EDBCF00F0030EDBCF01F0040EDBCF76
:1008700002F0050EDBCF03F0060EDBCF04F0070E0F
:10088000DBCF05F0080EDBCF06F0090EDBCF07F05B
:10089000086A096A0A6A0B6A200E0C6E0350800B04
:1008A000E8440D6E0050002601360236033608502B
:1008B000082609360A360B360D50D8A40880075092
:1008C0000B5C08E106500A5C05E10550095C02E199
:1008D0000450085C09E30450085E0550095A0650AC
:1008E0000A5A07500B5A00800C060C50D7E103C07F
:1008F000E9FF02C0F4FF01C0F3FF0050E4CF0DF0A8
:10090000E4CF0CF0E4CF0BF0E4CF0AF0E4CF09F031
:10091000E4CF08F0E4CF07F0E4CF06F0E4CF05F031
:10092000E4CF04F0E4CF03F0E4CF02F0E4CF01F031
:10093000E4CF00F0E4CFD9FF1200D9CFE5FFE1CF3B
:10094000D9FF00C0E5FF01C0E5FF02C0E5FF03C01D
:10095000E5FF04C0E5FF05C0E5FF06C0E5FF07C0F1
:10096000E5FF020EDBCF00F0030EDBCF01F0040E3B
:10097000DBCF02F0050EDBCF03F0D88003AED890BA
:100980002AE3031C076E021C066E011C056E001C88
:10099000046E042A04E1052A02E1064A072A0750E8
:1009A000E56E0650E56E0550E56E0450E56E35ECDB
:1009B00002F0046EF3CF05F0F4CF06F0E9CF07F0B4
:1009C000040EE126077E07C0E9FF06C0F4FF05C05C
:1009D000F3FF04501AD00350E56E0250E56E01504B
:1009E000E56E0050E56E35EC02F0006EF3CF01F0DD
:1009F000F4CF02F0E9CF03F0040EE12603C0E9FFD3
:100A000002C0F4FF01C0F3FF0050E4CF07F0E4CFD1
:100A100006F0E4CF05F0E4CF04F0E4CF03F0E4CF38
:100A200002F0E4CF01F0E4CF00F0E4CFD9FF1200F0
:100A3000D9CFE5FFE1CFD9FF00C0E5FF01C0E5FF59
:100A400002C0E5FF03C0E5FF04C0E5FF05C0E5FF08
:100A500006C0E5FF07C0E5FF08C0E5FF020EDBCFDB
:100A600000F0030EDBCF01F00050026E0150036E68
:100A7000270E035C02E1100E025C38E2026A0150AC
:100A8000001034E0640E0224036E046A000E042297
:100A90000050056E0150066E000EE56E0A0EE56E02
:100AA0000650E56E0550E56E5FEC06F0076EF3CF7D
:100AB00008F0040EE12603C0E9FF04C0EAFF07C006
:100AC000EFFF000EE56E0A0EE56E0650E56E05506E
:100AD000E56EC4EC07F0036EF3CF04F0040EE126DC
:100AE0000350006E0450016E022AC9D7E4CF08F00B
:100AF000E4CF07F0E4CF06F0E4CF05F0E4CF04F054
:100B0000E4CF03F0E4CF02F0E4CF01F0E4CF00F053
:100B1000E4CFD9FF1200D9CFE5FFE1CFD9FF00C064
:100B2000E5FF01C0E5FF02C0E5FF03C0E5FF020EDF
:100B3000DBCF00F0030EDBCF01F00150E56E00507B
:100B4000E56E000EE56E400EE56EDAEC02F0006E2A
:100B5000F3CF01F0040EE126026A036A0350E56E4A
:100B60000250E56E0150E56E0050E56E010EE56E37
:100B7000310EE56E2D0EE56E000EE56E06EC00F012
:100B8000006EF3CF01F0F4CF02F0E9CF03F0080ECE
:100B9000E126FF0E00260122022203220350E56E09
:100BA0000250E56E0150E56E0050E56E9DEC04F0DC
:100BB000006EF3CF01F0F4CF02F0E9CF03F0040EA2
:100BC000E1260350E56E0250E56E0150E56E0050DF
:100BD000E56EBCEC06F0AF6E040EE126948E949C9C
:100BE000900EAB6EE4CF03F0E4CF02F0E4CF01F05F
:100BF000E4CF00F0E4CFD9FF1200D9CFE5FFE1CF79
:100C0000D9FF00C0E5FF020EDBCF00F0100E005C44
:100C1000D8B04FD0FA6AFB6A0034FA36E834FA36B4
:100C2000FC0B320FE56E0C0EFA22000EFB22E45094
:100C3000F96E39EF06F03BEF06F03DEF06F03FEFBF
:100C400006F041EF06F043EF06F045EF06F047EF00
:100C500006F049EF06F04BEF06F04DEF06F04FEFD0
:100C600006F051EF06F053EF06F055EF06F057EFA0
:100C700006F03F0E1FD0060E1DD05B0E1BD04F0E90
:100C800019D0660E17D06D0E15D07D0E13D0070E3D
:100C900011D07F0E0FD06F0E0DD0770E0BD07C0EC3
:100CA00009D0390E07D05E0E05D0790E03D0710E33
:100CB00001D0E86AE4CF00F0E4CFD9FF1200D9CF29
:100CC000E5FFE1CFD9FF00C0E5FF01C0E5FF02C0AD
:100CD000E5FF03C0E5FF04C0E5FF05C0E5FF06C072
:100CE000E5FF020EDBCF00F0030EDBCF01F0040EB8
:100CF000DBCF02F0050EDBCF03F0046A056A035078
:100D0000800BE844066E065011E1025002260336BD
:100D10000350015C02E10250005C04E2D89003320F
:100D2000023204D0052A05C004F0E9D70350015C63
:100D300002E10250005C04E30250005E0350015ADD
:100D4000D8900332023204C005F004060550EEE1EB
:100D500001C0F3FF0050E4CF06F0E4CF05F0E4CF8C
:100D600004F0E4CF03F0E4CF02F0E4CF01F0E4CFED
:100D700000F0E4CFD9FF1200D9CFE5FFE1CFD9FFD2
:100D800000C0E5FF01C0E5FF02C0E5FF03C0E5FFCD
:100D9000020EDBCF00F0030EDBCF01F0040EDBCF41
:100DA00002F0050EDBCF03F00350E56E0250E56E56
:100DB0000150E56E0050E56E77EC03F0006EF3CF66
:100DC00001F0F4CF02F0E9CF03F0040EE126035066
:100DD000800F800F08E1000E025C05E17F0E015CD0
:100DE00002E1FF0E005C04E37F0EF36EE86814D0AE
:100DF0000350800F810F08E1FF0E025C05E1800EB9
:100E0000015C02E1010E005C04E2800EF36EE86A10
:100E100003D001C0F3FF0050E4CF03F0E4CF02F0B1
:100E2000E4CF01F0E4CF00F0E4CFD9FF1200D9CF36
:100E3000E5FFE1CFD9FF00C0E5FF01C0E5FF8D6A06
:100E4000896A640E00016825006E016A000E0122A5
:100E500000C0E9FF01C0EAFFEFCF00F00050E56EEF
:100E6000FDEC05F08C6EE65268C000F0040E005CEC
:100E700024E2FA6AFB6A0034FA36E834FA36FC0BEC
:100E8000900FE56E0E0EFA22000EFB22E450F96E72
:100E900050EF07F054EF07F057EF07F05AEF07F065
:100EA000896A040E8D6E09D0020E8D6E06D0010E79
:100EB0008D6E03D08D6A100E896E68C000F0002818
:100EC0000001686F040E0001685D02E30001686BB9
:100ED000E4CF01F0E4CF00F0E4CFD9FF120011EE2F
:100EE000FFF021EEFFF0F86AA68EA69C07EEFFF059
:100EF0000068ED6A0050FDE1400EF66E120EF76ECE
:100F0000000EF86E0900F5CF05F00900F5CF06F0E8
:100F100034D00900F5CF00F00900F5CF01F0090049
:100F2000F5CF02F009000900F5CFE9FF0900F5CF80
:100F3000EAFF090009000900F5CF03F00900F5CF29
:100F400004F009000900F6CF07F0F7CF08F0F8CF5A
:100F500009F000C0F6FF01C0F7FF02C0F8FF03D0A0
:100F60000900F5CFEEFF0306FBE20406F9E207C035
:100F7000F6FF08C0F7FF09C0F8FF0506CAE206063B
:100F8000C8E24CEC08F0FFD7D9CFE5FFE1CFD9FF9D
:100F900000C0E5FF01C0E5FF02C0E5FF03C0E5FFBB
:100FA00004C0E5FF05C0E5FF06C0E5FF07C0E5FF9B
:100FB000020EDBCF00F0030EDBCF01F0040EDBCF1F
:100FC00002F0050EDBCF03F0046A056A100E066E10
:100FD0000150800BE844076E005000260136045093
:100FE000042605360750D8A404800350055C02E1AE
:100FF0000250045C05E30250045E0350055A008071
:1010000006060650E5E101C0F3FF0050E4CF07F00B
:10101000E4CF06F0E4CF05F0E4CF04F0E4CF03F032
:10102000E4CF02F0E4CF01F0E4CF00F0E4CFD9FF49
:101030001200D9CFE5FFE1CFD9FF00C0E5FF960E42
:10104000006E00060050FDE1006A005000016A19C0
:1010500001E18C90005000016B1901E18C9200506D
:1010600000016C1901E18C94005000016D1901E13F
:101070008C96005000016E1901E18C98005000011F
:101080006F1901E18C9A002A640E005CDEE3E4CF64
:1010900000F0E4CFD9FF1200956A836AFF0E936EC9
:1010A0008A6A0F0EC16E966A8D6A926A896AF28E9A
:1010B000F28CF296F19EF180D08EF28AF184D58C7A
:1010C000D59AD596D550F80B0609D56ED58EFF0E5C
:1010D000836E00016A6B1E0E00016B6F3C0E0001F7
:1010E0006C6F460E00016D6F320E00016E6F320E96
:1010F00000016F6FFFD71200D8CFE5FFE0CFE5FF0B
:10110000E56EF3CFE5FFF4CFE5FFE9CFE5FFEACFEA
:10111000E5FFFACFE5FFFBCFE5FFD9CFE5FFE1CF54
:10112000D9FFF2A404D016EC09F03C0ED66EF2946E
:10113000E4CFD9FFE4CFFBFFE4CFFAFFE4CFEAFF2F
:10114000E4CFE9FFE4CFF4FFE4CFF3FFE450E4CFD2
:10115000E0FFE4CFD8FF1000D9CFE5FFE1CFD9FF02
:10116000956A836AFF0E936E8A6A0F0EC16E966A45
:101170008D6A926A896AF28EF28CF296F19EF18003
:10118000D08EF28AF184D58CD59AD596D550F80BAD
:101190000609D56ED58EE4CFD9FF1200D9CFE5FF71
:1011A000E1CFD9FFC250C30BC26EC150F00B0E0984
:1011B000C16EC08EC050C70B2809C06EC050F80B5E
:1011C0000109C06EC280E4CFD9FF1200D9CFE5FF7C
:1011D000E1CFD9FF00C0E5FF020EDBCF00F09EA8F3
:1011E000FED700C0ADFFE4CF00F0E4CFD9FF12007E
:1011F000D9CFE5FFE1CFD9FF9EAAFED7ABA203D09E
:10120000AB980000AB88AE50E4CFD9FF1200D9CF25
:10121000E5FFE1CFD9FF63C0E9FF62C0F4FF61C021
:10122000F3FF00016051E4CFD9FF1200D9CFE5FFF1
:10123000E1CFD9FF836819EC08F0E4CFD9FF1200A1
:1012400001004E120000600000000A0000000000D3
:08125000000000000000000096
:020000040030CA
:010001000CF2
:010003001EDE
:02000500038175
:00000001FF
